{
  "contractName": "BeApp",
  "abi": [
    {
      "constant": true,
      "inputs": [],
      "name": "name",
      "outputs": [
        {
          "name": "",
          "type": "string"
        }
      ],
      "payable": false,
      "stateMutability": "view",
      "type": "function",
      "signature": "0x06fdde03"
    },
    {
      "constant": false,
      "inputs": [
        {
          "name": "spender",
          "type": "address"
        },
        {
          "name": "value",
          "type": "uint256"
        }
      ],
      "name": "approve",
      "outputs": [
        {
          "name": "",
          "type": "bool"
        }
      ],
      "payable": false,
      "stateMutability": "nonpayable",
      "type": "function",
      "signature": "0x095ea7b3"
    },
    {
      "constant": true,
      "inputs": [
        {
          "name": "account",
          "type": "address"
        }
      ],
      "name": "balanceOfUser",
      "outputs": [
        {
          "name": "",
          "type": "uint256"
        }
      ],
      "payable": false,
      "stateMutability": "view",
      "type": "function",
      "signature": "0x12cae7af"
    },
    {
      "constant": true,
      "inputs": [],
      "name": "totalSupply",
      "outputs": [
        {
          "name": "",
          "type": "uint256"
        }
      ],
      "payable": false,
      "stateMutability": "view",
      "type": "function",
      "signature": "0x18160ddd"
    },
    {
      "constant": false,
      "inputs": [
        {
          "name": "from",
          "type": "address"
        },
        {
          "name": "to",
          "type": "address"
        },
        {
          "name": "value",
          "type": "uint256"
        }
      ],
      "name": "transferFrom",
      "outputs": [
        {
          "name": "",
          "type": "bool"
        }
      ],
      "payable": false,
      "stateMutability": "nonpayable",
      "type": "function",
      "signature": "0x23b872dd"
    },
    {
      "constant": true,
      "inputs": [],
      "name": "DECIMALS",
      "outputs": [
        {
          "name": "",
          "type": "uint8"
        }
      ],
      "payable": false,
      "stateMutability": "view",
      "type": "function",
      "signature": "0x2e0f2625"
    },
    {
      "constant": true,
      "inputs": [],
      "name": "INITIAL_SUPPLY",
      "outputs": [
        {
          "name": "",
          "type": "uint256"
        }
      ],
      "payable": false,
      "stateMutability": "view",
      "type": "function",
      "signature": "0x2ff2e9dc"
    },
    {
      "constant": true,
      "inputs": [],
      "name": "decimals",
      "outputs": [
        {
          "name": "",
          "type": "uint8"
        }
      ],
      "payable": false,
      "stateMutability": "view",
      "type": "function",
      "signature": "0x313ce567"
    },
    {
      "constant": false,
      "inputs": [
        {
          "name": "spender",
          "type": "address"
        },
        {
          "name": "addedValue",
          "type": "uint256"
        }
      ],
      "name": "increaseAllowance",
      "outputs": [
        {
          "name": "",
          "type": "bool"
        }
      ],
      "payable": false,
      "stateMutability": "nonpayable",
      "type": "function",
      "signature": "0x39509351"
    },
    {
      "constant": true,
      "inputs": [
        {
          "name": "owner",
          "type": "address"
        }
      ],
      "name": "balanceOf",
      "outputs": [
        {
          "name": "",
          "type": "uint256"
        }
      ],
      "payable": false,
      "stateMutability": "view",
      "type": "function",
      "signature": "0x70a08231"
    },
    {
      "constant": true,
      "inputs": [],
      "name": "symbol",
      "outputs": [
        {
          "name": "",
          "type": "string"
        }
      ],
      "payable": false,
      "stateMutability": "view",
      "type": "function",
      "signature": "0x95d89b41"
    },
    {
      "constant": false,
      "inputs": [
        {
          "name": "spender",
          "type": "address"
        },
        {
          "name": "subtractedValue",
          "type": "uint256"
        }
      ],
      "name": "decreaseAllowance",
      "outputs": [
        {
          "name": "",
          "type": "bool"
        }
      ],
      "payable": false,
      "stateMutability": "nonpayable",
      "type": "function",
      "signature": "0xa457c2d7"
    },
    {
      "constant": false,
      "inputs": [
        {
          "name": "to",
          "type": "address"
        },
        {
          "name": "value",
          "type": "uint256"
        }
      ],
      "name": "transfer",
      "outputs": [
        {
          "name": "",
          "type": "bool"
        }
      ],
      "payable": false,
      "stateMutability": "nonpayable",
      "type": "function",
      "signature": "0xa9059cbb"
    },
    {
      "constant": true,
      "inputs": [],
      "name": "userIndex",
      "outputs": [
        {
          "name": "",
          "type": "uint256"
        }
      ],
      "payable": false,
      "stateMutability": "view",
      "type": "function",
      "signature": "0xab701207"
    },
    {
      "constant": true,
      "inputs": [
        {
          "name": "",
          "type": "address"
        }
      ],
      "name": "balancesUser",
      "outputs": [
        {
          "name": "",
          "type": "uint256"
        }
      ],
      "payable": false,
      "stateMutability": "view",
      "type": "function",
      "signature": "0xb733751f"
    },
    {
      "constant": true,
      "inputs": [
        {
          "name": "owner",
          "type": "address"
        },
        {
          "name": "spender",
          "type": "address"
        }
      ],
      "name": "allowance",
      "outputs": [
        {
          "name": "",
          "type": "uint256"
        }
      ],
      "payable": false,
      "stateMutability": "view",
      "type": "function",
      "signature": "0xdd62ed3e"
    },
    {
      "inputs": [],
      "payable": false,
      "stateMutability": "nonpayable",
      "type": "constructor",
      "signature": "constructor"
    },
    {
      "anonymous": false,
      "inputs": [
        {
          "indexed": false,
          "name": "_userId",
          "type": "uint256"
        },
        {
          "indexed": false,
          "name": "_age",
          "type": "uint256"
        },
        {
          "indexed": false,
          "name": "_amountBET",
          "type": "uint256"
        },
        {
          "indexed": false,
          "name": "_email",
          "type": "string"
        },
        {
          "indexed": false,
          "name": "_ipfsValue",
          "type": "string"
        },
        {
          "indexed": false,
          "name": "_gender",
          "type": "bool"
        },
        {
          "indexed": false,
          "name": "_account",
          "type": "address"
        }
      ],
      "name": "NewUser",
      "type": "event",
      "signature": "0xaf6dfc6898a10b2843c9a16e5c8da0a9a51ccdf55795ab93d4430b9f0dccd7e6"
    },
    {
      "anonymous": false,
      "inputs": [
        {
          "indexed": false,
          "name": "_amountBET",
          "type": "uint256"
        },
        {
          "indexed": false,
          "name": "_answer1",
          "type": "uint256"
        },
        {
          "indexed": false,
          "name": "_answer2",
          "type": "uint256"
        },
        {
          "indexed": false,
          "name": "_answer3",
          "type": "uint256"
        },
        {
          "indexed": false,
          "name": "_answer4",
          "type": "uint256"
        },
        {
          "indexed": false,
          "name": "_answer5",
          "type": "uint256"
        },
        {
          "indexed": false,
          "name": "_answer6",
          "type": "uint256"
        },
        {
          "indexed": false,
          "name": "_answer7",
          "type": "uint256"
        },
        {
          "indexed": false,
          "name": "_answer8",
          "type": "uint256"
        },
        {
          "indexed": false,
          "name": "_answer9",
          "type": "uint256"
        },
        {
          "indexed": false,
          "name": "_answer10",
          "type": "uint256"
        },
        {
          "indexed": false,
          "name": "_answer11",
          "type": "uint256"
        }
      ],
      "name": "NewAnswer",
      "type": "event",
      "signature": "0x41a9558d24c694182cd63a64a6c53091ff0b86a78830fde66237eeffd4d74ced"
    },
    {
      "anonymous": false,
      "inputs": [
        {
          "indexed": true,
          "name": "from",
          "type": "address"
        },
        {
          "indexed": true,
          "name": "to",
          "type": "address"
        },
        {
          "indexed": false,
          "name": "value",
          "type": "uint256"
        }
      ],
      "name": "Transfer",
      "type": "event",
      "signature": "0xddf252ad1be2c89b69c2b068fc378daa952ba7f163c4a11628f55a4df523b3ef"
    },
    {
      "anonymous": false,
      "inputs": [
        {
          "indexed": true,
          "name": "owner",
          "type": "address"
        },
        {
          "indexed": true,
          "name": "spender",
          "type": "address"
        },
        {
          "indexed": false,
          "name": "value",
          "type": "uint256"
        }
      ],
      "name": "Approval",
      "type": "event",
      "signature": "0x8c5be1e5ebec7d5bd14f71427d1e84f3dd0314c0f7b2291e5b200ac8c7c3b925"
    },
    {
      "constant": false,
      "inputs": [
        {
          "name": "_age",
          "type": "uint256"
        },
        {
          "name": "_email",
          "type": "string"
        },
        {
          "name": "_gender",
          "type": "bool"
        }
      ],
      "name": "addUser",
      "outputs": [],
      "payable": false,
      "stateMutability": "nonpayable",
      "type": "function",
      "signature": "0xc7439491"
    },
    {
      "constant": false,
      "inputs": [
        {
          "name": "_amountBET",
          "type": "uint256"
        },
        {
          "name": "_ipfsValue",
          "type": "string"
        },
        {
          "name": "_answer1",
          "type": "uint256"
        },
        {
          "name": "_answer2",
          "type": "uint256"
        },
        {
          "name": "_answer3",
          "type": "uint256"
        },
        {
          "name": "_answer4",
          "type": "uint256"
        },
        {
          "name": "_answer5",
          "type": "uint256"
        },
        {
          "name": "_answer6",
          "type": "uint256"
        },
        {
          "name": "_answer7",
          "type": "uint256"
        },
        {
          "name": "_answer8",
          "type": "uint256"
        },
        {
          "name": "_answer9",
          "type": "uint256"
        },
        {
          "name": "_answer10",
          "type": "uint256"
        },
        {
          "name": "_answer11",
          "type": "uint256"
        }
      ],
      "name": "addAnswer",
      "outputs": [],
      "payable": false,
      "stateMutability": "nonpayable",
      "type": "function",
      "signature": "0x0fd4db65"
    },
    {
      "constant": true,
      "inputs": [
        {
          "name": "_userEmail",
          "type": "string"
        }
      ],
      "name": "getUser",
      "outputs": [
        {
          "name": "",
          "type": "uint256"
        },
        {
          "name": "",
          "type": "uint256"
        },
        {
          "name": "",
          "type": "uint256"
        },
        {
          "name": "",
          "type": "string"
        },
        {
          "name": "",
          "type": "string"
        },
        {
          "name": "",
          "type": "bool"
        },
        {
          "name": "",
          "type": "address"
        }
      ],
      "payable": false,
      "stateMutability": "view",
      "type": "function",
      "signature": "0x31feb671"
    },
    {
      "constant": true,
      "inputs": [
        {
          "name": "_userIndex",
          "type": "uint256"
        }
      ],
      "name": "getAnswer",
      "outputs": [
        {
          "name": "",
          "type": "uint256"
        },
        {
          "name": "",
          "type": "uint256"
        },
        {
          "name": "",
          "type": "uint256"
        },
        {
          "name": "",
          "type": "uint256"
        },
        {
          "name": "",
          "type": "uint256"
        },
        {
          "name": "",
          "type": "uint256"
        },
        {
          "name": "",
          "type": "uint256"
        },
        {
          "name": "",
          "type": "uint256"
        },
        {
          "name": "",
          "type": "uint256"
        },
        {
          "name": "",
          "type": "uint256"
        },
        {
          "name": "",
          "type": "uint256"
        }
      ],
      "payable": false,
      "stateMutability": "view",
      "type": "function",
      "signature": "0xb5ab58dc"
    }
  ],
  "bytecode": "0x60806040523480156200001157600080fd5b506040805190810160405280601881526020017f4265686176696f72616c45636f6e6f6d696373546f6b656e00000000000000008152506040805190810160405280600381526020017f42455400000000000000000000000000000000000000000000000000000000008152506012826003908051906020019062000098929190620002dd565b508160049080519060200190620000b1929190620002dd565b5080600560006101000a81548160ff021916908360ff160217905550505050620000f733601260ff16600a0a620186a00262000146640100000000026401000000009004565b33600560016101000a81548173ffffffffffffffffffffffffffffffffffffffff021916908373ffffffffffffffffffffffffffffffffffffffff16021790555060006007819055506200038c565b600073ffffffffffffffffffffffffffffffffffffffff168273ffffffffffffffffffffffffffffffffffffffff16141515156200018357600080fd5b620001a881600254620002bb6401000000000262002813179091906401000000009004565b6002819055506200020f816000808573ffffffffffffffffffffffffffffffffffffffff1673ffffffffffffffffffffffffffffffffffffffff16815260200190815260200160002054620002bb6401000000000262002813179091906401000000009004565b6000808473ffffffffffffffffffffffffffffffffffffffff1673ffffffffffffffffffffffffffffffffffffffff168152602001908152602001600020819055508173ffffffffffffffffffffffffffffffffffffffff16600073ffffffffffffffffffffffffffffffffffffffff167fddf252ad1be2c89b69c2b068fc378daa952ba7f163c4a11628f55a4df523b3ef836040518082815260200191505060405180910390a35050565b6000808284019050838110151515620002d357600080fd5b8091505092915050565b828054600181600116156101000203166002900490600052602060002090601f016020900481019282601f106200032057805160ff191683800117855562000351565b8280016001018555821562000351579182015b828111156200035057825182559160200191906001019062000333565b5b50905062000360919062000364565b5090565b6200038991905b80821115620003855760008160009055506001016200036b565b5090565b90565b6129b6806200039c6000396000f3fe608060405260043610610112576000357c0100000000000000000000000000000000000000000000000000000000900463ffffffff16806306fdde0314610117578063095ea7b3146101a75780630fd4db651461021a57806312cae7af1461035b57806318160ddd146103c057806323b872dd146103eb5780632e0f26251461047e5780632ff2e9dc146104af578063313ce567146104da57806331feb6711461050b578063395093511461070b57806370a082311461077e57806395d89b41146107e3578063a457c2d714610873578063a9059cbb146108e6578063ab70120714610959578063b5ab58dc14610984578063b733751f14610a19578063c743949114610a7e578063dd62ed3e14610b5c575b600080fd5b34801561012357600080fd5b5061012c610be1565b6040518080602001828103825283818151815260200191508051906020019080838360005b8381101561016c578082015181840152602081019050610151565b50505050905090810190601f1680156101995780820380516001836020036101000a031916815260200191505b509250505060405180910390f35b3480156101b357600080fd5b50610200600480360360408110156101ca57600080fd5b81019080803573ffffffffffffffffffffffffffffffffffffffff16906020019092919080359060200190929190505050610c83565b604051808215151515815260200191505060405180910390f35b34801561022657600080fd5b5061035960048036036101a081101561023e57600080fd5b81019080803590602001909291908035906020019064010000000081111561026557600080fd5b82018360208201111561027757600080fd5b8035906020019184600183028401116401000000008311171561029957600080fd5b91908080601f016020809104026020016040519081016040528093929190818152602001838380828437600081840152601f19601f8201169050808301925050505050505091929192908035906020019092919080359060200190929190803590602001909291908035906020019092919080359060200190929190803590602001909291908035906020019092919080359060200190929190803590602001909291908035906020019092919080359060200190929190505050610db0565b005b34801561036757600080fd5b506103aa6004803603602081101561037e57600080fd5b81019080803573ffffffffffffffffffffffffffffffffffffffff169060200190929190505050611459565b6040518082815260200191505060405180910390f35b3480156103cc57600080fd5b506103d56114a2565b6040518082815260200191505060405180910390f35b3480156103f757600080fd5b506104646004803603606081101561040e57600080fd5b81019080803573ffffffffffffffffffffffffffffffffffffffff169060200190929190803573ffffffffffffffffffffffffffffffffffffffff169060200190929190803590602001909291905050506114ac565b604051808215151515815260200191505060405180910390f35b34801561048a57600080fd5b506104936116b4565b604051808260ff1660ff16815260200191505060405180910390f35b3480156104bb57600080fd5b506104c46116b9565b6040518082815260200191505060405180910390f35b3480156104e657600080fd5b506104ef6116c9565b604051808260ff1660ff16815260200191505060405180910390f35b34801561051757600080fd5b506105d16004803603602081101561052e57600080fd5b810190808035906020019064010000000081111561054b57600080fd5b82018360208201111561055d57600080fd5b8035906020019184600183028401116401000000008311171561057f57600080fd5b91908080601f016020809104026020016040519081016040528093929190818152602001838380828437600081840152601f19601f8201169050808301925050505050505091929192905050506116e0565b604051808881526020018781526020018681526020018060200180602001851515151581526020018473ffffffffffffffffffffffffffffffffffffffff1673ffffffffffffffffffffffffffffffffffffffff168152602001838103835287818151815260200191508051906020019080838360005b83811015610663578082015181840152602081019050610648565b50505050905090810190601f1680156106905780820380516001836020036101000a031916815260200191505b50838103825286818151815260200191508051906020019080838360005b838110156106c95780820151818401526020810190506106ae565b50505050905090810190601f1680156106f65780820380516001836020036101000a031916815260200191505b50995050505050505050505060405180910390f35b34801561071757600080fd5b506107646004803603604081101561072e57600080fd5b81019080803573ffffffffffffffffffffffffffffffffffffffff16906020019092919080359060200190929190505050611a70565b604051808215151515815260200191505060405180910390f35b34801561078a57600080fd5b506107cd600480360360208110156107a157600080fd5b81019080803573ffffffffffffffffffffffffffffffffffffffff169060200190929190505050611ca7565b6040518082815260200191505060405180910390f35b3480156107ef57600080fd5b506107f8611cef565b6040518080602001828103825283818151815260200191508051906020019080838360005b8381101561083857808201518184015260208101905061081d565b50505050905090810190601f1680156108655780820380516001836020036101000a031916815260200191505b509250505060405180910390f35b34801561087f57600080fd5b506108cc6004803603604081101561089657600080fd5b81019080803573ffffffffffffffffffffffffffffffffffffffff16906020019092919080359060200190929190505050611d91565b604051808215151515815260200191505060405180910390f35b3480156108f257600080fd5b5061093f6004803603604081101561090957600080fd5b81019080803573ffffffffffffffffffffffffffffffffffffffff16906020019092919080359060200190929190505050611fc8565b604051808215151515815260200191505060405180910390f35b34801561096557600080fd5b5061096e612086565b6040518082815260200191505060405180910390f35b34801561099057600080fd5b506109bd600480360360208110156109a757600080fd5b810190808035906020019092919050505061208c565b604051808c81526020018b81526020018a81526020018981526020018881526020018781526020018681526020018581526020018481526020018381526020018281526020019b50505050505050505050505060405180910390f35b348015610a2557600080fd5b50610a6860048036036020811015610a3c57600080fd5b81019080803573ffffffffffffffffffffffffffffffffffffffff169060200190929190505050612195565b6040518082815260200191505060405180910390f35b348015610a8a57600080fd5b50610b5a60048036036060811015610aa157600080fd5b810190808035906020019092919080359060200190640100000000811115610ac857600080fd5b820183602082011115610ada57600080fd5b80359060200191846001830284011164010000000083111715610afc57600080fd5b91908080601f016020809104026020016040519081016040528093929190818152602001838380828437600081840152601f19601f8201169050808301925050505050505091929192908035151590602001909291905050506121ad565b005b348015610b6857600080fd5b50610bcb60048036036040811015610b7f57600080fd5b81019080803573ffffffffffffffffffffffffffffffffffffffff169060200190929190803573ffffffffffffffffffffffffffffffffffffffff16906020019092919050505061259e565b6040518082815260200191505060405180910390f35b606060038054600181600116156101000203166002900480601f016020809104026020016040519081016040528092919081815260200182805460018160011615610100020316600290048015610c795780601f10610c4e57610100808354040283529160200191610c79565b820191906000526020600020905b815481529060010190602001808311610c5c57829003601f168201915b5050505050905090565b60008073ffffffffffffffffffffffffffffffffffffffff168373ffffffffffffffffffffffffffffffffffffffff1614151515610cc057600080fd5b81600160003373ffffffffffffffffffffffffffffffffffffffff1673ffffffffffffffffffffffffffffffffffffffff16815260200190815260200160002060008573ffffffffffffffffffffffffffffffffffffffff1673ffffffffffffffffffffffffffffffffffffffff168152602001908152602001600020819055508273ffffffffffffffffffffffffffffffffffffffff163373ffffffffffffffffffffffffffffffffffffffff167f8c5be1e5ebec7d5bd14f71427d1e84f3dd0314c0f7b2291e5b200ac8c7c3b925846040518082815260200191505060405180910390a36001905092915050565b610db8612834565b610160604051908101604052808d81526020018c81526020018b81526020018a8152602001898152602001888152602001878152602001868152602001858152602001848152602001838152509050610e0f61288f565b600860003373ffffffffffffffffffffffffffffffffffffffff1673ffffffffffffffffffffffffffffffffffffffff1681526020019081526020016000206000600c60003373ffffffffffffffffffffffffffffffffffffffff1673ffffffffffffffffffffffffffffffffffffffff16815260200190815260200160002054815260200190815260200160002060e06040519081016040529081600082015481526020016001820154815260200160028201548152602001600382018054600181600116156101000203166002900480601f016020809104026020016040519081016040528092919081815260200182805460018160011615610100020316600290048015610f615780601f10610f3657610100808354040283529160200191610f61565b820191906000526020600020905b815481529060010190602001808311610f4457829003601f168201915b50505050508152602001600482018054600181600116156101000203166002900480601f0160208091040260200160405190810160405280929190818152602001828054600181600116156101000203166002900480156110035780601f10610fd857610100808354040283529160200191611003565b820191906000526020600020905b815481529060010190602001808311610fe657829003601f168201915b505050505081526020016005820160009054906101000a900460ff161515151581526020016005820160019054906101000a900473ffffffffffffffffffffffffffffffffffffffff1673ffffffffffffffffffffffffffffffffffffffff1673ffffffffffffffffffffffffffffffffffffffff1681525050905081600b60006007548152602001908152602001600020600082015181600001556020820151816001015560408201518160020155606082015181600301556080820151816004015560a0820151816005015560c0820151816006015560e082015181600701556101008201518160080155610120820151816009015561014082015181600a01559050508e8160400181815250508d816080018190525080600860003373ffffffffffffffffffffffffffffffffffffffff1673ffffffffffffffffffffffffffffffffffffffff1681526020019081526020016000206000600754815260200190815260200160002060008201518160000155602082015181600101556040820151816002015560608201518160030190805190602001906111a99291906128e5565b5060808201518160040190805190602001906111c69291906128e5565b5060a08201518160050160006101000a81548160ff02191690831515021790555060c08201518160050160016101000a81548173ffffffffffffffffffffffffffffffffffffffff021916908373ffffffffffffffffffffffffffffffffffffffff16021790555090505061123f338260400151611fc8565b507faf6dfc6898a10b2843c9a16e5c8da0a9a51ccdf55795ab93d4430b9f0dccd7e6816000015182602001518360400151846060015185608001518660a0015133604051808881526020018781526020018681526020018060200180602001851515151581526020018473ffffffffffffffffffffffffffffffffffffffff1673ffffffffffffffffffffffffffffffffffffffff168152602001838103835287818151815260200191508051906020019080838360005b838110156113125780820151818401526020810190506112f7565b50505050905090810190601f16801561133f5780820380516001836020036101000a031916815260200191505b50838103825286818151815260200191508051906020019080838360005b8381101561137857808201518184015260208101905061135d565b50505050905090810190601f1680156113a55780820380516001836020036101000a031916815260200191505b50995050505050505050505060405180910390a17f41a9558d24c694182cd63a64a6c53091ff0b86a78830fde66237eeffd4d74ced8f8e8e8e8e8e8e8e8e8e8e8e604051808d81526020018c81526020018b81526020018a81526020018981526020018881526020018781526020018681526020018581526020018481526020018381526020018281526020019c5050505050505050505050505060405180910390a1505050505050505050505050505050565b6000600660008373ffffffffffffffffffffffffffffffffffffffff1673ffffffffffffffffffffffffffffffffffffffff168152602001908152602001600020549050919050565b6000600254905090565b600061153d82600160008773ffffffffffffffffffffffffffffffffffffffff1673ffffffffffffffffffffffffffffffffffffffff16815260200190815260200160002060003373ffffffffffffffffffffffffffffffffffffffff1673ffffffffffffffffffffffffffffffffffffffff1681526020019081526020016000205461262590919063ffffffff16565b600160008673ffffffffffffffffffffffffffffffffffffffff1673ffffffffffffffffffffffffffffffffffffffff16815260200190815260200160002060003373ffffffffffffffffffffffffffffffffffffffff1673ffffffffffffffffffffffffffffffffffffffff168152602001908152602001600020819055506115c8848484612647565b3373ffffffffffffffffffffffffffffffffffffffff168473ffffffffffffffffffffffffffffffffffffffff167f8c5be1e5ebec7d5bd14f71427d1e84f3dd0314c0f7b2291e5b200ac8c7c3b925600160008873ffffffffffffffffffffffffffffffffffffffff1673ffffffffffffffffffffffffffffffffffffffff16815260200190815260200160002060003373ffffffffffffffffffffffffffffffffffffffff1673ffffffffffffffffffffffffffffffffffffffff168152602001908152602001600020546040518082815260200191505060405180910390a3600190509392505050565b601281565b601260ff16600a0a620186a00281565b6000600560009054906101000a900460ff16905090565b60008060006060806000806116f361288f565b60086000600a600060098d6040518082805190602001908083835b602083101515611733578051825260208201915060208101905060208303925061170e565b6001836020036101000a038019825116818451168082178552505050505050905001915050908152602001604051809103902054815260200190815260200160002060009054906101000a900473ffffffffffffffffffffffffffffffffffffffff1673ffffffffffffffffffffffffffffffffffffffff1673ffffffffffffffffffffffffffffffffffffffff168152602001908152602001600020600060098b6040518082805190602001908083835b60208310151561180a57805182526020820191506020810190506020830392506117e5565b6001836020036101000a038019825116818451168082178552505050505050905001915050908152602001604051809103902054815260200190815260200160002060e06040519081016040529081600082015481526020016001820154815260200160028201548152602001600382018054600181600116156101000203166002900480601f01602080910402602001604051908101604052809291908181526020018280546001816001161561010002031660029004801561190f5780601f106118e45761010080835404028352916020019161190f565b820191906000526020600020905b8154815290600101906020018083116118f257829003601f168201915b50505050508152602001600482018054600181600116156101000203166002900480601f0160208091040260200160405190810160405280929190818152602001828054600181600116156101000203166002900480156119b15780601f10611986576101008083540402835291602001916119b1565b820191906000526020600020905b81548152906001019060200180831161199457829003601f168201915b505050505081526020016005820160009054906101000a900460ff161515151581526020016005820160019054906101000a900473ffffffffffffffffffffffffffffffffffffffff1673ffffffffffffffffffffffffffffffffffffffff1673ffffffffffffffffffffffffffffffffffffffff16815250509050806000015181602001518260400151836060015184608001518560a001518660c00151839350829250975097509750975097509750975050919395979092949650565b60008073ffffffffffffffffffffffffffffffffffffffff168373ffffffffffffffffffffffffffffffffffffffff1614151515611aad57600080fd5b611b3c82600160003373ffffffffffffffffffffffffffffffffffffffff1673ffffffffffffffffffffffffffffffffffffffff16815260200190815260200160002060008673ffffffffffffffffffffffffffffffffffffffff1673ffffffffffffffffffffffffffffffffffffffff1681526020019081526020016000205461281390919063ffffffff16565b600160003373ffffffffffffffffffffffffffffffffffffffff1673ffffffffffffffffffffffffffffffffffffffff16815260200190815260200160002060008573ffffffffffffffffffffffffffffffffffffffff1673ffffffffffffffffffffffffffffffffffffffff168152602001908152602001600020819055508273ffffffffffffffffffffffffffffffffffffffff163373ffffffffffffffffffffffffffffffffffffffff167f8c5be1e5ebec7d5bd14f71427d1e84f3dd0314c0f7b2291e5b200ac8c7c3b925600160003373ffffffffffffffffffffffffffffffffffffffff1673ffffffffffffffffffffffffffffffffffffffff16815260200190815260200160002060008773ffffffffffffffffffffffffffffffffffffffff1673ffffffffffffffffffffffffffffffffffffffff168152602001908152602001600020546040518082815260200191505060405180910390a36001905092915050565b60008060008373ffffffffffffffffffffffffffffffffffffffff1673ffffffffffffffffffffffffffffffffffffffff168152602001908152602001600020549050919050565b606060048054600181600116156101000203166002900480601f016020809104026020016040519081016040528092919081815260200182805460018160011615610100020316600290048015611d875780601f10611d5c57610100808354040283529160200191611d87565b820191906000526020600020905b815481529060010190602001808311611d6a57829003601f168201915b5050505050905090565b60008073ffffffffffffffffffffffffffffffffffffffff168373ffffffffffffffffffffffffffffffffffffffff1614151515611dce57600080fd5b611e5d82600160003373ffffffffffffffffffffffffffffffffffffffff1673ffffffffffffffffffffffffffffffffffffffff16815260200190815260200160002060008673ffffffffffffffffffffffffffffffffffffffff1673ffffffffffffffffffffffffffffffffffffffff1681526020019081526020016000205461262590919063ffffffff16565b600160003373ffffffffffffffffffffffffffffffffffffffff1673ffffffffffffffffffffffffffffffffffffffff16815260200190815260200160002060008573ffffffffffffffffffffffffffffffffffffffff1673ffffffffffffffffffffffffffffffffffffffff168152602001908152602001600020819055508273ffffffffffffffffffffffffffffffffffffffff163373ffffffffffffffffffffffffffffffffffffffff167f8c5be1e5ebec7d5bd14f71427d1e84f3dd0314c0f7b2291e5b200ac8c7c3b925600160003373ffffffffffffffffffffffffffffffffffffffff1673ffffffffffffffffffffffffffffffffffffffff16815260200190815260200160002060008773ffffffffffffffffffffffffffffffffffffffff1673ffffffffffffffffffffffffffffffffffffffff168152602001908152602001600020546040518082815260200191505060405180910390a36001905092915050565b6000611ff7600560019054906101000a900473ffffffffffffffffffffffffffffffffffffffff168484612647565b81600660008573ffffffffffffffffffffffffffffffffffffffff1673ffffffffffffffffffffffffffffffffffffffff1681526020019081526020016000205401600660008573ffffffffffffffffffffffffffffffffffffffff1673ffffffffffffffffffffffffffffffffffffffff168152602001908152602001600020819055506001905092915050565b60075481565b60008060008060008060008060008060006120a5612834565b600b60008e8152602001908152602001600020610160604051908101604052908160008201548152602001600182015481526020016002820154815260200160038201548152602001600482015481526020016005820154815260200160068201548152602001600782015481526020016008820154815260200160098201548152602001600a820154815250509050806000015181602001518260400151836060015184608001518560a001518660c001518760e001518861010001518961012001518a61014001519b509b509b509b509b509b509b509b509b509b509b505091939597999b90929496989a50565b60066020528060005260406000206000915090505481565b60016007600082825401925050819055506121c661288f565b60e0604051908101604052806007548152602001858152602001600081526020018481526020016020604051908101604052806000815250815260200183151581526020013373ffffffffffffffffffffffffffffffffffffffff16815250905080600860003373ffffffffffffffffffffffffffffffffffffffff1673ffffffffffffffffffffffffffffffffffffffff1681526020019081526020016000206000600754815260200190815260200160002060008201518160000155602082015181600101556040820151816002015560608201518160030190805190602001906122b49291906128e5565b5060808201518160040190805190602001906122d19291906128e5565b5060a08201518160050160006101000a81548160ff02191690831515021790555060c08201518160050160016101000a81548173ffffffffffffffffffffffffffffffffffffffff021916908373ffffffffffffffffffffffffffffffffffffffff1602179055509050506007546009846040518082805190602001908083835b6020831015156123775780518252602082019150602081019050602083039250612352565b6001836020036101000a03801982511681845116808217855250505050505090500191505090815260200160405180910390208190555033600a6000600754815260200190815260200160002060006101000a81548173ffffffffffffffffffffffffffffffffffffffff021916908373ffffffffffffffffffffffffffffffffffffffff160217905550600754600c60003373ffffffffffffffffffffffffffffffffffffffff1673ffffffffffffffffffffffffffffffffffffffff168152602001908152602001600020819055506000600660003373ffffffffffffffffffffffffffffffffffffffff1673ffffffffffffffffffffffffffffffffffffffff168152602001908152602001600020819055507faf6dfc6898a10b2843c9a16e5c8da0a9a51ccdf55795ab93d4430b9f0dccd7e6600754856000868633604051808781526020018681526020018581526020018060200180602001851515151581526020018473ffffffffffffffffffffffffffffffffffffffff1673ffffffffffffffffffffffffffffffffffffffff168152602001838103835286818151815260200191508051906020019080838360005b8381101561254957808201518184015260208101905061252e565b50505050905090810190601f1680156125765780820380516001836020036101000a031916815260200191505b508381038252600081526020016020019850505050505050505060405180910390a150505050565b6000600160008473ffffffffffffffffffffffffffffffffffffffff1673ffffffffffffffffffffffffffffffffffffffff16815260200190815260200160002060008373ffffffffffffffffffffffffffffffffffffffff1673ffffffffffffffffffffffffffffffffffffffff16815260200190815260200160002054905092915050565b600082821115151561263657600080fd5b600082840390508091505092915050565b600073ffffffffffffffffffffffffffffffffffffffff168273ffffffffffffffffffffffffffffffffffffffff161415151561268357600080fd5b6126d4816000808673ffffffffffffffffffffffffffffffffffffffff1673ffffffffffffffffffffffffffffffffffffffff1681526020019081526020016000205461262590919063ffffffff16565b6000808573ffffffffffffffffffffffffffffffffffffffff1673ffffffffffffffffffffffffffffffffffffffff16815260200190815260200160002081905550612767816000808573ffffffffffffffffffffffffffffffffffffffff1673ffffffffffffffffffffffffffffffffffffffff1681526020019081526020016000205461281390919063ffffffff16565b6000808473ffffffffffffffffffffffffffffffffffffffff1673ffffffffffffffffffffffffffffffffffffffff168152602001908152602001600020819055508173ffffffffffffffffffffffffffffffffffffffff168373ffffffffffffffffffffffffffffffffffffffff167fddf252ad1be2c89b69c2b068fc378daa952ba7f163c4a11628f55a4df523b3ef836040518082815260200191505060405180910390a3505050565b600080828401905083811015151561282a57600080fd5b8091505092915050565b6101606040519081016040528060008152602001600081526020016000815260200160008152602001600081526020016000815260200160008152602001600081526020016000815260200160008152602001600081525090565b60e0604051908101604052806000815260200160008152602001600081526020016060815260200160608152602001600015158152602001600073ffffffffffffffffffffffffffffffffffffffff1681525090565b828054600181600116156101000203166002900490600052602060002090601f016020900481019282601f1061292657805160ff1916838001178555612954565b82800160010185558215612954579182015b82811115612953578251825591602001919060010190612938565b5b5090506129619190612965565b5090565b61298791905b8082111561298357600081600090555060010161296b565b5090565b9056fea165627a7a723058202f2cee97a96245eb82d25a16bbc7fe3fab93e05bade05778cc9ca2c3b7126e150029",
  "source": "pragma solidity >=0.5.0;\r\n\r\nimport \"./BET.sol\";\r\n\r\ncontract BeApp is BET {\r\n    \r\n    uint public userIndex;\r\n\r\n    mapping(address => mapping(uint => User)) userInfo;\r\n    mapping(string => uint) userEmailToId;\r\n    mapping(uint => address) userIdToInfo;\r\n    mapping(uint => Answer) answerValue;\r\n    mapping(address => uint) userAddressToId;\r\n    \r\n    struct Answer2 { // string  Answer\r\n        uint answer1;\r\n        string answer2;\r\n        string answer3;\r\n        uint answer4;\r\n        uint answer5;\r\n        uint answer6;\r\n        uint answer7;\r\n        uint answer8;\r\n        uint answer9;\r\n        uint answer10;\r\n        string answer11;\r\n    }\r\n    \r\n    struct Answer {\r\n        uint answer1;\r\n        uint answer2;\r\n        uint answer3;\r\n        uint answer4;\r\n        uint answer5;\r\n        uint answer6;\r\n        uint answer7;\r\n        uint answer8;\r\n        uint answer9;\r\n        uint answer10;\r\n        uint answer11;\r\n    }\r\n    \r\n    struct User {\r\n        uint id;\r\n        uint age;\r\n        uint amountBET;\r\n        string email;\r\n        string ipfsValue;\r\n        bool gender;\r\n        address account;\r\n    }\r\n    \r\n    event NewUser(uint _userId, uint _age, uint _amountBET, string _email, string _ipfsValue, bool _gender, address _account);\r\n    event NewAnswer(uint _amountBET, uint _answer1, uint _answer2, uint _answer3, uint _answer4, uint _answer5, uint _answer6, uint _answer7, uint _answer8, uint _answer9, uint _answer10, uint _answer11);\r\n    // event NewAnswer(uint _amountBET, uint _answer1, string _answer2, string _answer3, uint _answer4, uint _answer5, uint _answer6, uint _answer7, uint _answer8, uint _answer9, uint _answer10, string _answer11);\r\n\r\n    constructor() public {\r\n        userIndex = 0;\r\n    }\r\n    \r\n    function addUser(uint _age, string memory _email, bool _gender) public {\r\n        userIndex += 1;\r\n        User memory user = User(userIndex, _age, 0, _email, \"\", _gender, msg.sender);\r\n        userInfo[msg.sender][userIndex] = user;\r\n        userEmailToId[_email] = userIndex;\r\n        userIdToInfo[userIndex] = msg.sender;\r\n        userAddressToId[msg.sender] = userIndex;\r\n        balancesUser[msg.sender] = 0;\r\n        emit NewUser(userIndex, _age, 0, _email, \"\", _gender, msg.sender);\r\n    }\r\n    \r\n    function addAnswer(uint _amountBET, string memory _ipfsValue, uint _answer1, uint _answer2, uint _answer3, uint _answer4, \r\n        uint _answer5, uint _answer6, uint _answer7, uint _answer8, uint _answer9, uint _answer10, uint _answer11) public {\r\n        Answer memory answer = Answer(_answer1, _answer2, _answer3, _answer4, _answer5, _answer6, _answer7, _answer8, _answer9, _answer10, _answer11);\r\n        User memory user = userInfo[msg.sender][userAddressToId[msg.sender]];\r\n        answerValue[userIndex] = answer;\r\n        user.amountBET = _amountBET;\r\n        user.ipfsValue = _ipfsValue;\r\n        userInfo[msg.sender][userIndex] = user;\r\n        transfer(msg.sender, user.amountBET);\r\n        emit NewUser(user.id, user.age, user.amountBET, user.email, user.ipfsValue, user.gender, msg.sender);\r\n        emit NewAnswer(_amountBET, _answer1, _answer2, _answer3, _answer4, _answer5, _answer6, _answer7, _answer8, _answer9, _answer10, _answer11);\r\n        }\r\n    \r\n    function getUser(string memory _userEmail) public view returns (uint, uint, uint, string memory, string memory, bool, address) {\r\n        User memory user = userInfo[userIdToInfo[userEmailToId[_userEmail]]][userEmailToId[_userEmail]];\r\n        return (user.id, user.age, user.amountBET, user.email, user.ipfsValue, user.gender, user.account);\r\n    }\r\n    \r\n    \r\n    function getAnswer(uint _userIndex) public view returns (uint, uint, uint, uint, uint, uint, uint, uint, uint, uint, uint) {\r\n        Answer memory answer = answerValue[_userIndex];    \r\n        return (answer.answer1, answer.answer2, answer.answer3, answer.answer4, answer.answer5, answer.answer6, answer.answer7, answer.answer8, answer.answer9, answer.answer10, answer.answer11);\r\n    }\r\n}",
  "sourcePath": "C:/Users/user/Desktop/beapp-master/SmartContract/contracts/BeApp.sol",
  "compiler": {
    "name": "solc",
    "version": "0.5.0+commit.1d4f565a.Emscripten.clang"
  },
  "schemaVersion": "3.0.3",
  "updatedAt": "2019-03-31T09:50:33.340Z",
  "devdoc": {
    "methods": {
      "allowance(address,address)": {
        "details": "Function to check the amount of tokens that an owner allowed to a spender.",
        "params": {
          "owner": "address The address which owns the funds.",
          "spender": "address The address which will spend the funds."
        },
        "return": "A uint256 specifying the amount of tokens still available for the spender."
      },
      "approve(address,uint256)": {
        "details": "Approve the passed address to spend the specified amount of tokens on behalf of msg.sender. Beware that changing an allowance with this method brings the risk that someone may use both the old and the new allowance by unfortunate transaction ordering. One possible solution to mitigate this race condition is to first reduce the spender's allowance to 0 and set the desired value afterwards: https://github.com/ethereum/EIPs/issues/20#issuecomment-263524729",
        "params": {
          "spender": "The address which will spend the funds.",
          "value": "The amount of tokens to be spent."
        }
      },
      "balanceOf(address)": {
        "details": "Gets the balance of the specified address.",
        "params": {
          "owner": "The address to query the balance of."
        },
        "return": "An uint256 representing the amount owned by the passed address."
      },
      "decimals()": {
        "return": "the number of decimals of the token."
      },
      "decreaseAllowance(address,uint256)": {
        "details": "Decrease the amount of tokens that an owner allowed to a spender. approve should be called when allowed_[_spender] == 0. To decrement allowed value is better to use this function to avoid 2 calls (and wait until the first transaction is mined) From MonolithDAO Token.sol Emits an Approval event.",
        "params": {
          "spender": "The address which will spend the funds.",
          "subtractedValue": "The amount of tokens to decrease the allowance by."
        }
      },
      "increaseAllowance(address,uint256)": {
        "details": "Increase the amount of tokens that an owner allowed to a spender. approve should be called when allowed_[_spender] == 0. To increment allowed value is better to use this function to avoid 2 calls (and wait until the first transaction is mined) From MonolithDAO Token.sol Emits an Approval event.",
        "params": {
          "addedValue": "The amount of tokens to increase the allowance by.",
          "spender": "The address which will spend the funds."
        }
      },
      "name()": {
        "return": "the name of the token."
      },
      "symbol()": {
        "return": "the symbol of the token."
      },
      "totalSupply()": {
        "details": "Total number of tokens in existence"
      },
      "transferFrom(address,address,uint256)": {
        "details": "Transfer tokens from one address to another. Note that while this function emits an Approval event, this is not required as per the specification, and other compliant implementations may not emit the event.",
        "params": {
          "from": "address The address which you want to send tokens from",
          "to": "address The address which you want to transfer to",
          "value": "uint256 the amount of tokens to be transferred"
        }
      }
    }
  },
  "userdoc": {
    "methods": {}
  }
}