{
  "contractName": "BeApp",
  "abi": [
    {
      "constant": true,
      "inputs": [],
      "name": "userIndex",
      "outputs": [
        {
          "name": "",
          "type": "uint256"
        }
      ],
      "payable": false,
      "stateMutability": "view",
      "type": "function"
    },
    {
      "inputs": [],
      "payable": false,
      "stateMutability": "nonpayable",
      "type": "constructor"
    },
    {
      "anonymous": false,
      "inputs": [
        {
          "indexed": false,
          "name": "_userId",
          "type": "uint256"
        },
        {
          "indexed": false,
          "name": "_age",
          "type": "uint256"
        },
        {
          "indexed": false,
          "name": "_email",
          "type": "string"
        },
        {
          "indexed": false,
          "name": "_ipfsValue",
          "type": "string"
        },
        {
          "indexed": false,
          "name": "_gender",
          "type": "bool"
        },
        {
          "indexed": false,
          "name": "_account",
          "type": "address"
        }
      ],
      "name": "NewUser",
      "type": "event"
    },
    {
      "constant": false,
      "inputs": [
        {
          "name": "_age",
          "type": "uint256"
        },
        {
          "name": "_email",
          "type": "string"
        },
        {
          "name": "_ipfsValue",
          "type": "string"
        },
        {
          "name": "_gender",
          "type": "bool"
        }
      ],
      "name": "addUser",
      "outputs": [],
      "payable": false,
      "stateMutability": "nonpayable",
      "type": "function"
    },
    {
      "constant": false,
      "inputs": [
        {
          "name": "_userId",
          "type": "uint256"
        }
      ],
      "name": "getUser",
      "outputs": [
        {
          "name": "",
          "type": "uint256"
        },
        {
          "name": "",
          "type": "uint256"
        },
        {
          "name": "",
          "type": "string"
        },
        {
          "name": "",
          "type": "string"
        },
        {
          "name": "",
          "type": "bool"
        },
        {
          "name": "",
          "type": "address"
        }
      ],
      "payable": false,
      "stateMutability": "nonpayable",
      "type": "function"
    }
  ],
  "bytecode": "0x608060405234801561001057600080fd5b5060008081905550610a54806100276000396000f3fe608060405260043610610057576000357c0100000000000000000000000000000000000000000000000000000000900463ffffffff1680637b6584f81461005c578063ab701207146101d1578063b0467deb146101fc575b600080fd5b34801561006857600080fd5b506101cf6004803603608081101561007f57600080fd5b8101908080359060200190929190803590602001906401000000008111156100a657600080fd5b8201836020820111156100b857600080fd5b803590602001918460018302840111640100000000831117156100da57600080fd5b91908080601f016020809104026020016040519081016040528093929190818152602001838380828437600081840152601f19601f8201169050808301925050505050505091929192908035906020019064010000000081111561013d57600080fd5b82018360208201111561014f57600080fd5b8035906020019184600183028401116401000000008311171561017157600080fd5b91908080601f016020809104026020016040519081016040528093929190818152602001838380828437600081840152601f19601f820116905080830192505050505050509192919290803515159060200190929190505050610368565b005b3480156101dd57600080fd5b506101e6610689565b6040518082815260200191505060405180910390f35b34801561020857600080fd5b506102356004803603602081101561021f57600080fd5b810190808035906020019092919050505061068f565b604051808781526020018681526020018060200180602001851515151581526020018473ffffffffffffffffffffffffffffffffffffffff1673ffffffffffffffffffffffffffffffffffffffff168152602001838103835287818151815260200191508051906020019080838360005b838110156102c15780820151818401526020810190506102a6565b50505050905090810190601f1680156102ee5780820380516001836020036101000a031916815260200191505b50838103825286818151815260200191508051906020019080838360005b8381101561032757808201518184015260208101905061030c565b50505050905090810190601f1680156103545780820380516001836020036101000a031916815260200191505b509850505050505050505060405180910390f35b60016000808282540192505081905550610380610934565b60c060405190810160405280600054815260200186815260200185815260200184815260200183151581526020013373ffffffffffffffffffffffffffffffffffffffff16815250905080600160003373ffffffffffffffffffffffffffffffffffffffff1673ffffffffffffffffffffffffffffffffffffffff1681526020019081526020016000206000805481526020019081526020016000206000820151816000015560208201518160010155604082015181600201908051906020019061044c929190610983565b506060820151816003019080519060200190610469929190610983565b5060808201518160040160006101000a81548160ff02191690831515021790555060a08201518160040160016101000a81548173ffffffffffffffffffffffffffffffffffffffff021916908373ffffffffffffffffffffffffffffffffffffffff16021790555090505033600260008054815260200190815260200160002060006101000a81548173ffffffffffffffffffffffffffffffffffffffff021916908373ffffffffffffffffffffffffffffffffffffffff1602179055507fe876e107ca7bc8cfb618112bb9baf9e9116d52d7ac02ee792f9d512a06b0f8656000548686868633604051808781526020018681526020018060200180602001851515151581526020018473ffffffffffffffffffffffffffffffffffffffff1673ffffffffffffffffffffffffffffffffffffffff168152602001838103835287818151815260200191508051906020019080838360005b838110156105dc5780820151818401526020810190506105c1565b50505050905090810190601f1680156106095780820380516001836020036101000a031916815260200191505b50838103825286818151815260200191508051906020019080838360005b83811015610642578082015181840152602081019050610627565b50505050905090810190601f16801561066f5780820380516001836020036101000a031916815260200191505b509850505050505050505060405180910390a15050505050565b60005481565b6000806060806000806106a0610934565b60016000600260008b815260200190815260200160002060009054906101000a900473ffffffffffffffffffffffffffffffffffffffff1673ffffffffffffffffffffffffffffffffffffffff1673ffffffffffffffffffffffffffffffffffffffff168152602001908152602001600020600089815260200190815260200160002060c060405190810160405290816000820154815260200160018201548152602001600282018054600181600116156101000203166002900480601f0160208091040260200160405190810160405280929190818152602001828054600181600116156101000203166002900480156107dc5780601f106107b1576101008083540402835291602001916107dc565b820191906000526020600020905b8154815290600101906020018083116107bf57829003601f168201915b50505050508152602001600382018054600181600116156101000203166002900480601f01602080910402602001604051908101604052809291908181526020018280546001816001161561010002031660029004801561087e5780601f106108535761010080835404028352916020019161087e565b820191906000526020600020905b81548152906001019060200180831161086157829003601f168201915b505050505081526020016004820160009054906101000a900460ff161515151581526020016004820160019054906101000a900473ffffffffffffffffffffffffffffffffffffffff1673ffffffffffffffffffffffffffffffffffffffff1673ffffffffffffffffffffffffffffffffffffffff16815250509050806000015181602001518260400151836060015184608001518560a001518393508292509650965096509650965096505091939550919395565b60c06040519081016040528060008152602001600081526020016060815260200160608152602001600015158152602001600073ffffffffffffffffffffffffffffffffffffffff1681525090565b828054600181600116156101000203166002900490600052602060002090601f016020900481019282601f106109c457805160ff19168380011785556109f2565b828001600101855582156109f2579182015b828111156109f15782518255916020019190600101906109d6565b5b5090506109ff9190610a03565b5090565b610a2591905b80821115610a21576000816000905550600101610a09565b5090565b9056fea165627a7a72305820454a17caad2cacf87cd31c350ba348b925229dc577d3e1a254023ad765906a1a0029",
  "source": "pragma solidity >=0.5.0;\r\n\r\ncontract BeApp {\r\n    \r\n    uint public userIndex;\r\n    \r\n    mapping(address => mapping(uint => User)) userInfo;\r\n    mapping(uint => address) userIdInAccount;\r\n    \r\n    struct User {\r\n        uint id;\r\n        uint age;\r\n        string email;\r\n        string ipfsValue;\r\n        bool gender;\r\n        address account;\r\n    }\r\n    \r\n\t\tevent NewUser(uint _userId, uint _age, string _email, string _ipfsValue, bool _gender, address _account);\r\n\r\n    constructor() public {\r\n        userIndex = 0;\r\n    }\r\n    \r\n    function addUser(uint _age, string memory _email, string memory _ipfsValue, bool _gender) public {\r\n        userIndex += 1;\r\n        User memory user = User(userIndex, _age, _email, _ipfsValue, _gender, msg.sender);\r\n        userInfo[msg.sender][userIndex] = user;\r\n        userIdInAccount[userIndex] = msg.sender;\r\n\t\t\t\temit NewUser(userIndex, _age, _email, _ipfsValue, _gender, msg.sender);\r\n    }\r\n    \r\n    function getUser(uint _userId) public returns (uint, uint, string memory, string memory, bool, address) {\r\n        User memory user = userInfo[userIdInAccount[_userId]][_userId];\r\n        return (user.id, user.age, user.email, user.ipfsValue, user.gender, user.account);\r\n    }\r\n}",
  "sourcePath": "E:/Leeyeon 5th dApp - beApp/beApp/contracts/BeApp.sol",
  "compiler": {
    "name": "solc",
    "version": "0.5.0+commit.1d4f565a.Emscripten.clang"
  },
  "schemaVersion": "3.0.2",
  "updatedAt": "2019-03-08T10:42:11.611Z",
  "devdoc": {
    "methods": {}
  },
  "userdoc": {
    "methods": {}
  }
}