{
  "contractName": "BeApp",
  "abi": [
    {
      "constant": true,
      "inputs": [],
      "name": "userIndex",
      "outputs": [
        {
          "name": "",
          "type": "uint256"
        }
      ],
      "payable": false,
      "stateMutability": "view",
      "type": "function",
      "signature": "0xab701207"
    },
    {
      "inputs": [],
      "payable": false,
      "stateMutability": "nonpayable",
      "type": "constructor",
      "signature": "constructor"
    },
    {
      "anonymous": false,
      "inputs": [
        {
          "indexed": false,
          "name": "_userId",
          "type": "uint256"
        },
        {
          "indexed": false,
          "name": "_age",
          "type": "uint256"
        },
        {
          "indexed": false,
          "name": "_email",
          "type": "string"
        },
        {
          "indexed": false,
          "name": "_ipfsValue",
          "type": "string"
        },
        {
          "indexed": false,
          "name": "_gender",
          "type": "bool"
        },
        {
          "indexed": false,
          "name": "_account",
          "type": "address"
        }
      ],
      "name": "NewUser",
      "type": "event",
      "signature": "0xe876e107ca7bc8cfb618112bb9baf9e9116d52d7ac02ee792f9d512a06b0f865"
    },
    {
      "constant": false,
      "inputs": [
        {
          "name": "_age",
          "type": "uint256"
        },
        {
          "name": "_email",
          "type": "string"
        },
        {
          "name": "_ipfsValue",
          "type": "string"
        },
        {
          "name": "_gender",
          "type": "bool"
        }
      ],
      "name": "addUser",
      "outputs": [],
      "payable": false,
      "stateMutability": "nonpayable",
      "type": "function",
      "signature": "0x7b6584f8"
    },
    {
      "constant": true,
      "inputs": [
        {
          "name": "_userEmail",
          "type": "string"
        }
      ],
      "name": "getUser",
      "outputs": [
        {
          "name": "",
          "type": "uint256"
        },
        {
          "name": "",
          "type": "uint256"
        },
        {
          "name": "",
          "type": "string"
        },
        {
          "name": "",
          "type": "string"
        },
        {
          "name": "",
          "type": "bool"
        },
        {
          "name": "",
          "type": "address"
        }
      ],
      "payable": false,
      "stateMutability": "view",
      "type": "function",
      "signature": "0x31feb671"
    }
  ],
  "bytecode": "0x608060405234801561001057600080fd5b5060008081905550610c29806100276000396000f3fe608060405260043610610057576000357c0100000000000000000000000000000000000000000000000000000000900463ffffffff16806331feb6711461005c5780637b6584f814610255578063ab701207146103ca575b600080fd5b34801561006857600080fd5b506101226004803603602081101561007f57600080fd5b810190808035906020019064010000000081111561009c57600080fd5b8201836020820111156100ae57600080fd5b803590602001918460018302840111640100000000831117156100d057600080fd5b91908080601f016020809104026020016040519081016040528093929190818152602001838380828437600081840152601f19601f8201169050808301925050505050505091929192905050506103f5565b604051808781526020018681526020018060200180602001851515151581526020018473ffffffffffffffffffffffffffffffffffffffff1673ffffffffffffffffffffffffffffffffffffffff168152602001838103835287818151815260200191508051906020019080838360005b838110156101ae578082015181840152602081019050610193565b50505050905090810190601f1680156101db5780820380516001836020036101000a031916815260200191505b50838103825286818151815260200191508051906020019080838360005b838110156102145780820151818401526020810190506101f9565b50505050905090810190601f1680156102415780820380516001836020036101000a031916815260200191505b509850505050505050505060405180910390f35b34801561026157600080fd5b506103c86004803603608081101561027857600080fd5b81019080803590602001909291908035906020019064010000000081111561029f57600080fd5b8201836020820111156102b157600080fd5b803590602001918460018302840111640100000000831117156102d357600080fd5b91908080601f016020809104026020016040519081016040528093929190818152602001838380828437600081840152601f19601f8201169050808301925050505050505091929192908035906020019064010000000081111561033657600080fd5b82018360208201111561034857600080fd5b8035906020019184600183028401116401000000008311171561036a57600080fd5b91908080601f016020809104026020016040519081016040528093929190818152602001838380828437600081840152601f19601f820116905080830192505050505050509192919290803515159060200190929190505050610770565b005b3480156103d657600080fd5b506103df610b03565b6040518082815260200191505060405180910390f35b600080606080600080610406610b09565b600160006003600060028c6040518082805190602001908083835b6020831015156104465780518252602082019150602081019050602083039250610421565b6001836020036101000a038019825116818451168082178552505050505050905001915050908152602001604051809103902054815260200190815260200160002060009054906101000a900473ffffffffffffffffffffffffffffffffffffffff1673ffffffffffffffffffffffffffffffffffffffff1673ffffffffffffffffffffffffffffffffffffffff168152602001908152602001600020600060028a6040518082805190602001908083835b60208310151561051d57805182526020820191506020810190506020830392506104f8565b6001836020036101000a038019825116818451168082178552505050505050905001915050908152602001604051809103902054815260200190815260200160002060c060405190810160405290816000820154815260200160018201548152602001600282018054600181600116156101000203166002900480601f0160208091040260200160405190810160405280929190818152602001828054600181600116156101000203166002900480156106185780601f106105ed57610100808354040283529160200191610618565b820191906000526020600020905b8154815290600101906020018083116105fb57829003601f168201915b50505050508152602001600382018054600181600116156101000203166002900480601f0160208091040260200160405190810160405280929190818152602001828054600181600116156101000203166002900480156106ba5780601f1061068f576101008083540402835291602001916106ba565b820191906000526020600020905b81548152906001019060200180831161069d57829003601f168201915b505050505081526020016004820160009054906101000a900460ff161515151581526020016004820160019054906101000a900473ffffffffffffffffffffffffffffffffffffffff1673ffffffffffffffffffffffffffffffffffffffff1673ffffffffffffffffffffffffffffffffffffffff16815250509050806000015181602001518260400151836060015184608001518560a001518393508292509650965096509650965096505091939550919395565b60016000808282540192505081905550610788610b09565b60c060405190810160405280600054815260200186815260200185815260200184815260200183151581526020013373ffffffffffffffffffffffffffffffffffffffff16815250905080600160003373ffffffffffffffffffffffffffffffffffffffff1673ffffffffffffffffffffffffffffffffffffffff16815260200190815260200160002060008054815260200190815260200160002060008201518160000155602082015181600101556040820151816002019080519060200190610854929190610b58565b506060820151816003019080519060200190610871929190610b58565b5060808201518160040160006101000a81548160ff02191690831515021790555060a08201518160040160016101000a81548173ffffffffffffffffffffffffffffffffffffffff021916908373ffffffffffffffffffffffffffffffffffffffff1602179055509050506000546002856040518082805190602001908083835b60208310151561091757805182526020820191506020810190506020830392506108f2565b6001836020036101000a03801982511681845116808217855250505050505090500191505090815260200160405180910390208190555033600360008054815260200190815260200160002060006101000a81548173ffffffffffffffffffffffffffffffffffffffff021916908373ffffffffffffffffffffffffffffffffffffffff1602179055507fe876e107ca7bc8cfb618112bb9baf9e9116d52d7ac02ee792f9d512a06b0f8656000548686868633604051808781526020018681526020018060200180602001851515151581526020018473ffffffffffffffffffffffffffffffffffffffff1673ffffffffffffffffffffffffffffffffffffffff168152602001838103835287818151815260200191508051906020019080838360005b83811015610a56578082015181840152602081019050610a3b565b50505050905090810190601f168015610a835780820380516001836020036101000a031916815260200191505b50838103825286818151815260200191508051906020019080838360005b83811015610abc578082015181840152602081019050610aa1565b50505050905090810190601f168015610ae95780820380516001836020036101000a031916815260200191505b509850505050505050505060405180910390a15050505050565b60005481565b60c06040519081016040528060008152602001600081526020016060815260200160608152602001600015158152602001600073ffffffffffffffffffffffffffffffffffffffff1681525090565b828054600181600116156101000203166002900490600052602060002090601f016020900481019282601f10610b9957805160ff1916838001178555610bc7565b82800160010185558215610bc7579182015b82811115610bc6578251825591602001919060010190610bab565b5b509050610bd49190610bd8565b5090565b610bfa91905b80821115610bf6576000816000905550600101610bde565b5090565b9056fea165627a7a72305820f792e073c9164ce6380ef77a6bde74bf9030e9005301310a57ee5bd354885ce20029",
  "source": "pragma solidity >=0.5.0;\r\n\r\ncontract BeApp {\r\n    \r\n    uint public userIndex;\r\n    \r\n    mapping(address => mapping(uint => User)) userInfo;\r\n    mapping(string => uint) userEmailToId;\r\n    mapping(uint => address) userIdToInfo;\r\n    \r\n    struct User {\r\n        uint id;\r\n        uint age;\r\n        string email;\r\n        string ipfsValue;\r\n        bool gender;\r\n        address account;\r\n    }\r\n    \r\n\tevent NewUser(uint _userId, uint _age, string _email, string _ipfsValue, bool _gender, address _account);\r\n\r\n    constructor() public {\r\n        userIndex = 0;\r\n    }\r\n    \r\n    function addUser(uint _age, string memory _email, string memory _ipfsValue, bool _gender) public {\r\n        userIndex += 1;\r\n        User memory user = User(userIndex, _age, _email, _ipfsValue, _gender, msg.sender);\r\n        userInfo[msg.sender][userIndex] = user;\r\n        userEmailToId[_email] = userIndex;\r\n        userIdToInfo[userIndex] = msg.sender;\r\n\t\temit NewUser(userIndex, _age, _email, _ipfsValue, _gender, msg.sender);\r\n    }\r\n    \r\n    function getUser(string memory _userEmail) public view returns (uint, uint, string memory, string memory, bool, address) {\r\n        User memory user = userInfo[userIdToInfo[userEmailToId[_userEmail]]][userEmailToId[_userEmail]];\r\n        // User memory user = userInfo[userIdInAccount[_userId]][_userId];\r\n        return (user.id, user.age, user.email, user.ipfsValue, user.gender, user.account);\r\n    }\r\n}",
  "sourcePath": "C:/Users/user/Downloads/beapp-master/SmartContract/contracts/BeApp.sol",
  "compiler": {
    "name": "solc",
    "version": "0.5.0+commit.1d4f565a.Emscripten.clang"
  },
  "schemaVersion": "3.0.2",
  "updatedAt": "2019-03-11T10:59:12.061Z",
  "devdoc": {
    "methods": {}
  },
  "userdoc": {
    "methods": {}
  }
}